{
  "contractName": "TodoList",
  "abi": [
    {
      "constant": true,
      "inputs": [],
      "name": "taskCount",
      "outputs": [
        {
          "internalType": "uint256",
          "name": "",
          "type": "uint256"
        }
      ],
      "payable": false,
      "stateMutability": "view",
      "type": "function"
    }
  ],
  "bytecode": "0x608060405260008055348015601357600080fd5b506084806100226000396000f3fe6080604052348015600f57600080fd5b506004361060285760003560e01c8063b6cb58a514602d575b600080fd5b60336049565b6040518082815260200191505060405180910390f35b6000548156fea265627a7a723158207dd64b4291ad72e2d276f7b63fa39e921b5e831db31b5b362787a6341c5f100764736f6c63430005110032",
  "source": "pragma solidity ^0.5.0;\n\ncontract TodoList {\n    /// creation of a state variable\n    /// public keywords adds a function to red the state variable \n    uint public taskCount = 0;\n\n}",
  "sourcePath": "/home/amin/Documents/ethereum-todolist-dapp/contracts/TodoList.sol",
  "compiler": {
    "name": "solc",
    "version": "0.5.17+commit.d19bba13.Emscripten.clang"
  },
  "schemaVersion": "3.4.4",
  "updatedAt": "2022-01-14T19:59:31.969Z",
  "devdoc": {
    "methods": {}
  },
  "userdoc": {
    "methods": {}
  }
}